{
  "_format": "hh-sol-artifact-1",
  "contractName": "A2AEscrow",
  "sourceName": "contracts/A2AEscrow.sol",
  "abi": [
    {
      "anonymous": false,
      "inputs": [
        {
          "indexed": true,
          "internalType": "string",
          "name": "listingId",
          "type": "string"
        },
        {
          "indexed": false,
          "internalType": "string",
          "name": "ipfsHash",
          "type": "string"
        },
        {
          "indexed": true,
          "internalType": "address",
          "name": "buyer",
          "type": "address"
        },
        {
          "indexed": true,
          "internalType": "address",
          "name": "seller",
          "type": "address"
        },
        {
          "indexed": false,
          "internalType": "uint256",
          "name": "amount",
          "type": "uint256"
        }
      ],
      "name": "EscrowCreated",
      "type": "event"
    },
    {
      "anonymous": false,
      "inputs": [
        {
          "indexed": true,
          "internalType": "string",
          "name": "listingId",
          "type": "string"
        },
        {
          "indexed": true,
          "internalType": "address",
          "name": "buyer",
          "type": "address"
        },
        {
          "indexed": false,
          "internalType": "uint256",
          "name": "amount",
          "type": "uint256"
        }
      ],
      "name": "EscrowRefunded",
      "type": "event"
    },
    {
      "anonymous": false,
      "inputs": [
        {
          "indexed": true,
          "internalType": "string",
          "name": "listingId",
          "type": "string"
        },
        {
          "indexed": true,
          "internalType": "address",
          "name": "seller",
          "type": "address"
        },
        {
          "indexed": false,
          "internalType": "uint256",
          "name": "amount",
          "type": "uint256"
        }
      ],
      "name": "EscrowReleased",
      "type": "event"
    },
    {
      "inputs": [
        {
          "internalType": "string",
          "name": "_listingId",
          "type": "string"
        },
        {
          "internalType": "string",
          "name": "_ipfsHash",
          "type": "string"
        },
        {
          "internalType": "address payable",
          "name": "_seller",
          "type": "address"
        }
      ],
      "name": "createEscrow",
      "outputs": [],
      "stateMutability": "payable",
      "type": "function"
    },
    {
      "inputs": [
        {
          "internalType": "string",
          "name": "",
          "type": "string"
        }
      ],
      "name": "escrows",
      "outputs": [
        {
          "internalType": "string",
          "name": "listingId",
          "type": "string"
        },
        {
          "internalType": "string",
          "name": "ipfsHash",
          "type": "string"
        },
        {
          "internalType": "address payable",
          "name": "seller",
          "type": "address"
        },
        {
          "internalType": "address payable",
          "name": "buyer",
          "type": "address"
        },
        {
          "internalType": "uint256",
          "name": "amount",
          "type": "uint256"
        },
        {
          "internalType": "enum A2AEscrow.EscrowState",
          "name": "state",
          "type": "uint8"
        }
      ],
      "stateMutability": "view",
      "type": "function"
    },
    {
      "inputs": [
        {
          "internalType": "string",
          "name": "_listingId",
          "type": "string"
        }
      ],
      "name": "getEscrow",
      "outputs": [
        {
          "components": [
            {
              "internalType": "string",
              "name": "listingId",
              "type": "string"
            },
            {
              "internalType": "string",
              "name": "ipfsHash",
              "type": "string"
            },
            {
              "internalType": "address payable",
              "name": "seller",
              "type": "address"
            },
            {
              "internalType": "address payable",
              "name": "buyer",
              "type": "address"
            },
            {
              "internalType": "uint256",
              "name": "amount",
              "type": "uint256"
            },
            {
              "internalType": "enum A2AEscrow.EscrowState",
              "name": "state",
              "type": "uint8"
            }
          ],
          "internalType": "struct A2AEscrow.Escrow",
          "name": "",
          "type": "tuple"
        }
      ],
      "stateMutability": "view",
      "type": "function"
    },
    {
      "inputs": [
        {
          "internalType": "string",
          "name": "_listingId",
          "type": "string"
        }
      ],
      "name": "refund",
      "outputs": [],
      "stateMutability": "nonpayable",
      "type": "function"
    },
    {
      "inputs": [
        {
          "internalType": "string",
          "name": "_listingId",
          "type": "string"
        }
      ],
      "name": "releaseFunds",
      "outputs": [],
      "stateMutability": "nonpayable",
      "type": "function"
    },
    {
      "stateMutability": "payable",
      "type": "receive"
    }
  ],
  "bytecode": "0x608060405234801561001057600080fd5b50610fb3806100206000396000f3fe60806040526004361061004e5760003560e01c80635cc9f8641461009a578063969631d5146100d5578063c3abd8b314610102578063ee53e54e14610124578063fe5f2e881461013757600080fd5b366100955760405162461bcd60e51b815260206004820152601260248201527155736520637265617465457363726f77282960701b60448201526064015b60405180910390fd5b600080fd5b3480156100a657600080fd5b506100ba6100b5366004610bcc565b610157565b6040516100cc96959493929190610c91565b60405180910390f35b3480156100e157600080fd5b506100f56100f0366004610bcc565b6102b8565b6040516100cc9190610cf0565b34801561010e57600080fd5b5061012261011d366004610bcc565b61049d565b005b610122610132366004610d72565b61068f565b34801561014357600080fd5b50610122610152366004610bcc565b61094a565b805160208183018101805160008252928201919093012091528054819061017d90610df6565b80601f01602080910402602001604051908101604052809291908181526020018280546101a990610df6565b80156101f65780601f106101cb576101008083540402835291602001916101f6565b820191906000526020600020905b8154815290600101906020018083116101d957829003601f168201915b50505050509080600101805461020b90610df6565b80601f016020809104026020016040519081016040528092919081815260200182805461023790610df6565b80156102845780601f1061025957610100808354040283529160200191610284565b820191906000526020600020905b81548152906001019060200180831161026757829003601f168201915b5050505060028301546003840154600485015460059095015493946001600160a01b03928316949290911692509060ff1686565b6102ee6040805160c08101825260608082526020820181905260009282018390528101829052608081018290529060a082015290565b6000826040516102fe9190610e30565b90815260200160405180910390206040518060c001604052908160008201805461032790610df6565b80601f016020809104026020016040519081016040528092919081815260200182805461035390610df6565b80156103a05780601f10610375576101008083540402835291602001916103a0565b820191906000526020600020905b81548152906001019060200180831161038357829003601f168201915b505050505081526020016001820180546103b990610df6565b80601f01602080910402602001604051908101604052809291908181526020018280546103e590610df6565b80156104325780601f1061040757610100808354040283529160200191610432565b820191906000526020600020905b81548152906001019060200180831161041557829003601f168201915b50505091835250506002828101546001600160a01b039081166020840152600384015416604083015260048301546060830152600583015460809092019160ff169081111561048357610483610c59565b600281111561049457610494610c59565b90525092915050565b600080826040516104ae9190610e30565b90815260405190819003602001902090506000600582015460ff1660028111156104da576104da610c59565b1461051f5760405162461bcd60e51b81526020600482015260156024820152744e6f74206177616974696e672064656c697665727960581b604482015260640161008c565b60038101546001600160a01b031633146105745760405162461bcd60e51b81526020600482015260166024820152754f6e6c792062757965722063616e2072656c6561736560501b604482015260640161008c565b60058101805460ff19166001179055600281015460048201546040516000926001600160a01b031691908381818185875af1925050503d80600081146105d6576040519150601f19603f3d011682016040523d82523d6000602084013e6105db565b606091505b505090508061062c5760405162461bcd60e51b815260206004820152601960248201527f5472616e7366657220746f2073656c6c6572206661696c656400000000000000604482015260640161008c565b60028201546040516001600160a01b039091169061064b908590610e30565b60405190819003812060048501548252907f70bd880944db14759ff3be78c89049519998171ea8821154b9c218e09c5b4956906020015b60405180910390a3505050565b600034116106cf5760405162461bcd60e51b815260206004820152600d60248201526c09aeae6e840e6cadcc8408aa89609b1b604482015260640161008c565b6001600160a01b0381166107165760405162461bcd60e51b815260206004820152600e60248201526d24b73b30b634b21039b2b63632b960911b604482015260640161008c565b336001600160a01b038216036107675760405162461bcd60e51b815260206004820152601660248201527529b2b63632b91031b0b73737ba10313290313abcb2b960511b604482015260640161008c565b60006001600160a01b03166000846040516107829190610e30565b908152604051908190036020019020600301546001600160a01b0316146107fa5760405162461bcd60e51b815260206004820152602660248201527f457363726f7720616c72656164792065786973747320666f722074686973206c604482015265697374696e6760d01b606482015260840161008c565b6040805160c081018252848152602081018490526001600160a01b03831681830152336060820152346080820152600060a082018190529151909190610841908690610e30565b9081526040519081900360200190208151819061085e9082610e9b565b50602082015160018201906108739082610e9b565b506040820151600280830180546001600160a01b039384166001600160a01b0319918216179091556060850151600385018054919094169116179091556080830151600483015560a08301516005830180549192909160ff19169060019084908111156108e2576108e2610c59565b0217905550506040516001600160a01b03831691503390610904908690610e30565b60405180910390207f1e01bdb742edd399bb76751c17a5914ac85dfd2756f9b6cb5798aedacf4f5a8f853460405161093d929190610f5b565b60405180910390a4505050565b6000808260405161095b9190610e30565b90815260405190819003602001902090506000600582015460ff16600281111561098757610987610c59565b146109c55760405162461bcd60e51b815260206004820152600e60248201526d4e6f7420726566756e6461626c6560901b604482015260640161008c565b60028101546001600160a01b03163314806109ec575060038101546001600160a01b031633145b610a275760405162461bcd60e51b815260206004820152600c60248201526b155b985d5d1a1bdc9a5e995960a21b604482015260640161008c565b60058101805460ff19166002179055600381015460048201546040516000926001600160a01b031691908381818185875af1925050503d8060008114610a89576040519150601f19603f3d011682016040523d82523d6000602084013e610a8e565b606091505b5050905080610acf5760405162461bcd60e51b815260206004820152600d60248201526c1499599d5b990819985a5b1959609a1b604482015260640161008c565b60038201546040516001600160a01b0390911690610aee908590610e30565b60405190819003812060048501548252907f1065ba1a5e4d9d087a309d86a9ce14c67c7dbef9aa278a382c31e408d826cbdd90602001610682565b634e487b7160e01b600052604160045260246000fd5b600082601f830112610b5057600080fd5b813567ffffffffffffffff80821115610b6b57610b6b610b29565b604051601f8301601f19908116603f01168101908282118183101715610b9357610b93610b29565b81604052838152866020858801011115610bac57600080fd5b836020870160208301376000602085830101528094505050505092915050565b600060208284031215610bde57600080fd5b813567ffffffffffffffff811115610bf557600080fd5b610c0184828501610b3f565b949350505050565b60005b83811015610c24578181015183820152602001610c0c565b50506000910152565b60008151808452610c45816020860160208601610c09565b601f01601f19169290920160200192915050565b634e487b7160e01b600052602160045260246000fd5b60038110610c8d57634e487b7160e01b600052602160045260246000fd5b9052565b60c081526000610ca460c0830189610c2d565b8281036020840152610cb68189610c2d565b6001600160a01b03888116604086015287166060850152608084018690529150610ce5905060a0830184610c6f565b979650505050505050565b602081526000825160c06020840152610d0c60e0840182610c2d565b90506020840151601f19848303016040850152610d298282610c2d565b915050604084015160018060a01b0380821660608601528060608701511660808601525050608084015160a084015260a0840151610d6a60c0850182610c6f565b509392505050565b600080600060608486031215610d8757600080fd5b833567ffffffffffffffff80821115610d9f57600080fd5b610dab87838801610b3f565b94506020860135915080821115610dc157600080fd5b50610dce86828701610b3f565b92505060408401356001600160a01b0381168114610deb57600080fd5b809150509250925092565b600181811c90821680610e0a57607f821691505b602082108103610e2a57634e487b7160e01b600052602260045260246000fd5b50919050565b60008251610e42818460208701610c09565b9190910192915050565b601f821115610e9657600081815260208120601f850160051c81016020861015610e735750805b601f850160051c820191505b81811015610e9257828155600101610e7f565b5050505b505050565b815167ffffffffffffffff811115610eb557610eb5610b29565b610ec981610ec38454610df6565b84610e4c565b602080601f831160018114610efe5760008415610ee65750858301515b600019600386901b1c1916600185901b178555610e92565b600085815260208120601f198616915b82811015610f2d57888601518255948401946001909101908401610f0e565b5085821015610f4b5787850151600019600388901b60f8161c191681555b5050505050600190811b01905550565b604081526000610f6e6040830185610c2d565b9050826020830152939250505056fea264697066735822122063224c7fe6d95a1303ac19b62d0b046ffb367c7bddcdea0ea04b09082e0c0eec64736f6c63430008140033",
  "linkReferences": {},
  "deployedLinkReferences": {}
}